{"abi":[{"type":"function","name":"greet","inputs":[],"outputs":[{"name":"","type":"string","internalType":"string"}],"stateMutability":"view"},{"type":"function","name":"greeting","inputs":[],"outputs":[{"name":"","type":"string","internalType":"string"}],"stateMutability":"view"}],"bytecode":{"object":"0x60c0604052601060809081526f48656c6c6f2c20536f6c69646974792160801b60a05260009061002f90826100e1565b5034801561003c57600080fd5b5061019f565b634e487b7160e01b600052604160045260246000fd5b600181811c9082168061006c57607f821691505b60208210810361008c57634e487b7160e01b600052602260045260246000fd5b50919050565b601f8211156100dc57806000526020600020601f840160051c810160208510156100b95750805b601f840160051c820191505b818110156100d957600081556001016100c5565b50505b505050565b81516001600160401b038111156100fa576100fa610042565b61010e816101088454610058565b84610092565b6020601f821160018114610142576000831561012a5750848201515b600019600385901b1c1916600184901b1784556100d9565b600084815260208120601f198516915b828110156101725787850151825560209485019460019092019101610152565b50848210156101905786840151600019600387901b60f8161c191681555b50505050600190811b01905550565b61023f806101ae6000396000f3fe608060405234801561001057600080fd5b50600436106100365760003560e01c8063cfae32171461003b578063ef690cc014610059575b600080fd5b610043610061565b6040516100509190610181565b60405180910390f35b6100436100f3565b606060008054610070906101cf565b80601f016020809104026020016040519081016040528092919081815260200182805461009c906101cf565b80156100e95780601f106100be576101008083540402835291602001916100e9565b820191906000526020600020905b8154815290600101906020018083116100cc57829003601f168201915b5050505050905090565b60008054610100906101cf565b80601f016020809104026020016040519081016040528092919081815260200182805461012c906101cf565b80156101795780601f1061014e57610100808354040283529160200191610179565b820191906000526020600020905b81548152906001019060200180831161015c57829003601f168201915b505050505081565b602081526000825180602084015260005b818110156101af5760208186018101516040868401015201610192565b506000604082850101526040601f19601f83011684010191505092915050565b600181811c908216806101e357607f821691505b60208210810361020357634e487b7160e01b600052602260045260246000fd5b5091905056fea2646970667358221220267da333f8522845f6d517e9bf70c5d23d642ef530b212de81f96c729c5f86fd64736f6c634300081b0033","linkReferences":{}},"methodIdentifiers":{"greet()":"cfae3217","greeting()":"ef690cc0"},"id":0}